:0E0000000C944A000C9400000C9400000C9428
:10000E0000000C9400000C9477000C9400000C94EB
:10001E0000000C9400000C9400000C9400000C9452
:10002E0000000C9400000C9400000C9400000C9442
:10003E0000000C9400000C9400000C9400000C9432
:10004E0000000C9400001027E80364000A00010071
:10005E0000100001100001005245443D25642C2083
:10006E00475245454E3D25642C20424C55453D2575
:10007E00642C20434C4541523D25640080C0020053
:10008E0072018A000000F894EE27ECBBF1E0FBBF92
:10009E00EBBFE5BF8DE0A2E0BB27ED938A95E9F7B4
:1000AE0080E094E0A0E6ED930197E9F7ECE8F0E04C
:1000BE0085919591009761F0A591B5910590159058
:1000CE00BF01F00105900D920197E1F7FB01F0CF12
:1000DE00EFE5EDBFE4E0EEBFC0E6D1E00C94BB006F
:1000EE00AA93BA93EA93FA93EFB7EA93E091640175
:1000FE00F0916501309791F466B47724E7B5FE2F41
:10010E00E0E04F01E629F7295F01E1E0EEBDE1E015
:10011E00F0E0E0936401F09365011FC0E6B5F0E0F6
:10012E00E0936001F0936101E7B5FE2FE0E0E0930C
:10013E006201F0936301A0916001B0916101EA2B1D
:10014E00FB2B6F01E1E4EEBDF601EA19FB092F016D
:10015E00E0E0E0936401E0936501E991EFBFF9916E
:10016E00E991B991A9911895E0E0EABBEBBBEFE1FB
:10017E00E7BBE0E0E8BBE4BBE5BBE1BBE2BBE3BF52
:10018E00E2BFECBFEFBDE1E4EEBDE0E0EDBDECBDE6
:10019E00E7BDE6BDEBBDEABDE9BDE8BDE2BDE5BD2F
:1001AE00E4BDE3BDE0E2E9BFE0E0E5BFE4BFEAB9EC
:1001BE00E0E8E8B9E0E0E0BFE6B9EDB9E6BFA0E1FE
:1001CE000E94E6017894C098C1980E948801C29856
:1001DE00C4984092660150926701C29AC49AE8E6AA
:1001EE00F1E040825182C298C49AEAE6F1E0408280
:1001FE005182C29AC498ECE6F1E040825182EEE65A
:10020E00F1E0FA93EA93E6E6F0E0FA93EA93E091EE
:10021E006601F09167010E94DB03E0916801F091A5
:10022E0069010E94DB03E0916A01F0916B010E946B
:10023E00DB03E0916C01F0916D010E94DB0380E124
:10024E000E948E036496AEE6B1E00E94C401A4EF54
:10025E00B1E00E941504B9CFFFCFFFE0FA95F1F798
:10026E000895A4B3AF70A4BBA99AA898F6DFAA9A72
:10027E00F4DFA3B3AA98F1DFAA9AEFDFAA98A7FD3D
:10028E00F5CF0895A07FAB2BA5BBAA9A0E9434018F
:10029E00AA980E9434010895AA93A998A4B3A76FAF
:1002AE00A4BBB5B3BF70A881EDDFA881A295EADF2C
:1002BE00A99A0C941802AA9A0E943401E3B3AA9840
:1002CE000E943401E07F08950E943401F4DFAE2FC6
:1002DE00F2DFA998E295EA2B0895AA930E943801BD
:1002EE00E881F0E0EE58FE4FE081A981AE0F0E944A
:1002FE005301E981E0937601E881E093770122963C
:10030E0008950E943801A2E00E9453010E94380114
:10031E00ACE00E9453010E943801A1E00E945301FB
:10032E00E0E0E0937701E09376010895AA93EF93CE
:10033E00FF93A8816894AA3039F0E894E09178018F
:10034E00A0917601AE1758F0E0917701EF5FE09340
:10035E007701E0E0EA93A0917701BFDF56F0E091DC
:10036E007601EF5FE09376017CDFA89AA8810E9468
:10037E005301FF91EF910C941802BA93AA931A931A
:10038E00A981BA81ED91A983BA831E2FE03019F0AD
:10039E00A12FCCDFF5CF188123960895AA27BB276E
:1003AE001197F1F70895AA93A998A4B3A76FA4BBC8
:1003BE00B5B3BF70A8810E944901A99A32C0AA9311
:1003CE00AA98A898E881E0937801E058E093740128
:1003DE00E881E054E09375010E94E0030E94E0037F
:1003EE000E94E003DBDFA0E2DEDFD8DFA8E20E949E
:1003FE00E503A4E00E94E503A5E80E94E503A4B38B
:10040E00AF70A4BBA99A0E946B01E53011F0E0E039
:10041E0008C00E943801A6E00E9453010E94880184
:10042E00E1E021960895BA93AA931A930A93AA81AA
:10043E00BB8112960E942C04309759F1AA81BB8180
:10044E0014960E942C048F01309761F00230E0E088
:10045E001E0798F0F80131978F01AA81BB8114967F
:10046E00ED93FC93AA81BB811296ED91FD9131968D
:10047E00FE93EE933197AC81A083AA81BB810E943B
:10048E002C04FF232AF0ED91FD913196FE93EE930D
:10049E0006C0AA81BB81EFEFFFEFED93FC931981AC
:1004AE00088125960895BA93AA9326970E94390437
:1004BE0010E0AC85BD85E0E0F0E0ED93FC93EA89B9
:1004CE00FB893196EA8BFB8B3197E4912E2FE0302E
:1004DE0009F415C1E12FE03039F4253211F411E0A1
:1004EE0002C00E94E9030AC1E130A9F4253219F4D1
:1004FE000E94E90302C112E040E000E02D3211F447
:10050E0001E0FCC02B3211F44BE2F8C0203211F4A2
:10051E0040E2F4C002C0E23039F450E013E0203380
:10052E0011F40068EBC003C0E33009F0E7C02033DC
:10053E0010F02A3308F007C0AAE05A9F502DE22F80
:10054E00E0535E0FDBC0E22FE33649F40E94F00366
:10055E00E889F989A481AA930E94F603CEC0E337F5
:10056E0041F40E94F0030E94FC030E94C2031E2F5E
:10057E000AC0E03761F40E94F0030E94FC030E945F
:10058E00CE031E2F086002600F7730E034C0E436D1
:10059E0011F0E93611F4046002C0E53731F4E4E5F8
:1005AE00F0E0EE83FF8315E00CC0E83511F408602F
:1005BE0003C0E83709F0A1C0EEE5F0E0EE83FF835B
:1005CE0014E002FF14C00E94F0030E940604AB85E3
:1005DE00AA233AF4EA85FB850E942304EA87FB8767
:1005EE004DE2403011F01F5F01C00B7F04C00E942E
:1005FE00F0030E94060400FD11C0151778F407FFE2
:10060E0008C002FF04C00B7F242F115001C020E34D
:10061E0001C020E20E94E9035150EFCF312F01FFBC
:10062E0017C03030A1F003FF06C0EE81FF81259187
:10063E00EE83FF8305C0AE81BF812D91AE83BF8354
:10064E000E94E903503009F051503150EACF4BC0AF
:10065E0020E3EE81FF810E943004E887F987EE8166
:10066E00FF813296EE83FF83E885F985AA85BB85E7
:10067E00AE17BF0750F02F5FA885B985EA85FB85B9
:10068E00EA1BFB0BEA87FB87EFCF2A3328F003FF29
:10069E0002C0295F01C0295D04FD1AC0213320F478
:1006AE00A885B985119709F409C0531710F000FFFA
:1006BE0001C013C020E207FF0BC020E3006102FF60
:1006CE0007C00B7F4A930E94F603503009F0515039
:1006DE000E94E903503009F051503150A885B98578
:1006EE00129708F0B5CF00FF08C0503031F05150CE
:1006FE00E0E2EA930E94F603F8CF10E0E0CEAC857C
:10070E00BD850E942C040E94400464960895FF92B9
:10071E00F82E26970E943B040E940E04309719F47F
:10072E00EFEFFFEF23C0DE0116960E941F048D012E
:10073E000E940E04EE83FF83E0E0E887E987DE0186
:10074E001A960E941F040E942C04FA93EA931A939D
:10075E000A93EAE1F2E0FA93EA93DE011A96A3DE37
:10076E009F01AE81BF81E0E0EC93F9010E9442044B
:10077E002A96FF900895BA93AA93A991B991EE275C
:10078E00FF276D91662311F03196FBCF0895BA9332
:10079E00AA93AA27BB27E991F9910590002011F0A1
:1007AE001196FBCFFD0108950E9427040E94340488
:1007BE0008950E94D501A0E30C94DA010E94530122
:1007CE000C94D5012A93AD85BE85EF85F8890995E0
:1007DE000895E889F9893497E88BF98B0895AD85EA
:1007EE00BE85EF85F88909950895A889B98914966B
:1007FE000E942C04EE83FF83AE81BF810895A889E9
:10080E00B98914960E942C04EA87FB870895DE01AD
:10081E001C960E941F040E942C040895109639F015
:10082E008AEF90E00197F1F7A8951197C9F708950F
:10083E000024AF0DB01D0895F195E195F040089597
:10084E006F2F660F660B762F0895ED91FC91119721
:10085E0008950590F491E02D08957A936A93FA9392
:10086E00EA9308955A934A933A932A931A930A93C2
:10087E0008955D814C813B812A81198108810895FB
:00000001FF
